:020000040800F2
:10000000FF4F0020AD040008C5060008C706000821
:10001000C9060008CB060008CD0600080000000055
:10002000000000000000000000000000CF060008F3
:10003000D106000800000000D3060008D50600081D
:10004000F1040008F1040008F1040008F1040008BC
:10005000F1040008F1040008F1040008F1040008AC
:10006000F1040008F1040008F1040008F10400089C
:10007000F1040008F1040008F1040008F10400088C
:10008000F1040008F1040008F1040008F10400087C
:10009000F1040008F1040008F1040008F10400086C
:1000A000F1040008F1040008F1040008F10400085C
:1000B000F1040008F1040008F1040008F10400084C
:1000C000F1040008F1040008F1040008F10400083C
:1000D000F1040008F1040008F1040008F10400082C
:1000E000F1040008F1040008F10400080000000019
:1000F0000000000000000000000000000000000000
:1001000000000000000000005FF808F110B5054C89
:10011000237833B9044B13B10448AFF300800123B3
:10012000237010BD6004002000000000E0280008DB
:1001300008B5034B1BB103490348AFF3008008BD6A
:100140000000000064040020E0280008A3F5803AC5
:10015000704700BF174B002B08BF134B9D46FFF79E
:10016000F5FF00218B460F461348144A121A00F07F
:1001700069F80E4B002B00D098470D4B002B00D098
:1001800098470020002104000D000D48002802D0EF
:100190000C4800F015F900F031F82000290002F0B9
:1001A00065FB00F01BF800BF000008000000000025
:1001B000000000000000000060040020A4040020F3
:1001C000C1030008CD0300085C29000800000020DE
:1001D0006004002060040020A404002008B5002171
:1001E000044600F08BF8044B1868C36B03B19847C2
:1001F000204602F083FB00BF4429000870B50D4E75
:100200000D4D761BB61006D0002455F8043B013482
:100210009847A642F9D1094E094D02F063FB761BBF
:10022000B61006D0002455F8043B01349847A64286
:10023000F9D170BD5029000850290008582900083C
:1002400050290008830730B548D0541E002A3FD0FB
:100250000346CAB201E0013C3AD303F8012B9D07E3
:10026000F9D1032C2DD9CDB245EA05250F2C45EA4D
:10027000054536D9A4F1100222F00F0C03F1200E2F
:10028000E6444FEA121C03F1100242E9045542E928
:10029000025510327245F8D10CF1010214F00C0F26
:1002A00003EB021204F00F0C13D0ACF1040323F0A3
:1002B00003030433134442F8045B9342FBD10CF074
:1002C00003042CB1CAB21C4403F8012B9C42FBD19D
:1002D00030BD64461346002CF4D1F9E703461446BA
:1002E000BFE71A46A446E0E7024B13B1024800F00C
:1002F00067B8704700000000CD0300082DE9F04FFB
:1003000083462D4B83B018680F46CDF804B000F03B
:100310007DF82A4BD3F80080D8F848619EB14FF0A1
:1003200001094FF0000A7468651E0CD4013406EB15
:1003300084047FB1D4F80031BB420BD0013D6B1C6B
:10034000A4F10404F5D11C4B186803B0BDE8F04FCC
:1003500000F064B873682268013BAB420CBF756063
:10036000C4F800A0002AE9D0D6F8880109FA05F1FE
:100370000142D6F804B00BD1904772685A4512D1A9
:10038000D8F84831B342D9D01E46002ECBD1DAE797
:10039000D6F88C0101420BD10198D4F88010904717
:1003A00072685A45ECD0D8F84861002EBBD1CAE734
:1003B000D4F880009047E0E730040020442900088A
:1003C000002301461A46184600F02AB838B5084BF3
:1003D000084D5B1B9C1007D0043B1D44013C55F8A5
:1003E00004399847002CF9D1BDE8384002F080BAB2
:1003F0005C29000858290008704700BF704700BFFB
:10040000704700BF704700BF704700BF704700BF14
:100410000120704701207047704700BF704700BF40
:100420002DE9F047DFF87CA00646DAF80000984690
:100430000F469146FFF7EAFF1B4B1B68D3F8484174
:1004400024B365681F2D26DC5EB96B1C0235DAF813
:100450000000636044F82570FFF7E0FF0020BDE86E
:10046000F087012304EB8501C1F88890D4F8882136
:10047000AB401A43022EC4F88821C1F80881E4D1A8
:10048000D4F88C211343C4F88C31DEE703F5A6744D
:10049000C3F84841D5E7DAF80000FFF7BFFF4FF097
:1004A000FF30DCE73004002044290008002103E08D
:1004B0000A4B5B584350043109480A4B42189A4290
:1004C000F6D3094A02E0002342F8043B074B9A4264
:1004D000F9D300F053F802F0C9F970475C2900081D
:1004E000000000206004002060040020A40400201C
:1004F000FEE7EFF309800046704780F309887047F4
:10050000EFF308800046704780F308887047EFF3E8
:100510001280704780F311887047EFF310807047A6
:1005200080F310887047EFF31380704780F31388CF
:100530007047EFF31480704780F31488704700BA57
:10054000704740BA7047C0BA704790FAA0F0704741
:10055000D0E84F0FC0B27047D0E85F0F80B270474D
:1005600050E8000F7047C1E8420F10467047C1E8DD
:10057000520F1046704741E800007047374B82B079
:100580001A6842F001021A605968354A0A405A60F6
:100590001A6822F0847222F480321A601A6822F4F7
:1005A00080221A605A6822F4FE025A604FF41F0239
:1005B0009A600022009201921A6842F480321A6016
:1005C0001A6802F400320192009A01320092019AF4
:1005D0001AB9009AB2F5A06FF2D11A6812F400327B
:1005E00018BF01220192019A012A30D11D4A1168D7
:1005F00041F010011160116821F0030111601168D0
:1006000041F0020111605A685A605A685A605A688B
:1006100042F480625A605A6822F47C125A605A6826
:1006200042F4E8125A601A6842F080721A601A683E
:100630009201FCD55A6822F003025A605A6842F0CF
:1006400002025A605A6802F00C02082AFAD14FF0EE
:100650000062054B9A6002B0704700BF0010024074
:100660000000FFF80020024000ED00E01049114AB0
:100670004B6803F00C03082B0AD00F4B13604B6838
:100680000E49C3F30313C95C1368CB401360704772
:100690004B684868C3F38343C00303F1020302D4E9
:1006A00007484343EAE748688003F9D40248F8E77B
:1006B000001002404404002000127A00340400209C
:1006C00000093D007047FEE7FEE7FEE7FEE77047E2
:1006D00070477047024A136801331360704700BFC8
:1006E000A0040020014B1868704700BFA004002040
:1006F000034B40F0BF6040F40030D860704700BF4B
:1007000000ED00E070B50125017801F01F039D4068
:10071000C3784C09C3B10F4BDA684378D243C2F3B4
:100720000222C2F1040603FA06F683780F2020FAAB
:1007300002F213403343084A1B01DBB2114481F833
:10074000003342F8245070BD034B203443F824504A
:10075000F9E700BF00ED00E000E100E021F06041BA
:10076000024B21F07F0101439960704700ED00E0EA
:10077000044B1A6911B110431861704722EA000056
:10078000FAE700BF00ED00E04FF0E0231A6904280B
:100790000CBF42F0040222F004021A61704700000C
:1007A00008B5144B98420BD101214FF4007001F0B1
:1007B000FDFF00214FF40070BDE8084001F0F6BFD6
:1007C0000D4B984208D101214FF4806001F0EEFFFB
:1007D00000214FF48060EFE7084B984208D10121D7
:1007E0004FF4004001F0E2FF00214FF40040E3E746
:1007F00008BD00BF0024014000280140003C01402A
:1008000043680A7923F4702323F4807343EA0223B4
:100810000A6810B5134343608468D1E90223134387
:10082000084A224013434A7943EA420383600A7C20
:10083000C36A013A23F47003D2B243EA0253C3629B
:1008400010BD00BFFDF7F1FF0023C0E902330360D4
:100850008380012303747047836819B143F0010357
:100860008360704723F00103FAE7836819B143F40A
:1008700080738360704723F48073FAE74368C9B2DA
:1008800012B119434160704723EA0101FAE7836816
:1008900043F00803836070478068C0F3C00070476E
:1008A000836843F00403836070478068C0F380006E
:1008B0007047836819B143F4A0038360704723F441
:1008C000A003FAE78068C0F380507047436801399D
:1008D00023F4604343EA413343607047436819B1EE
:1008E00043F400634360704723F40063FAE7092987
:1008F00070B51BD90726A1F10A04C56804EB4404AE
:10090000A64025EA060503FA04F42C43C460062A2F
:1009100018D8531E1F22446B03EB83039A4024EA2A
:10092000020401FA03F22243426370BD0724056901
:1009300001EB4106B44025EA040503FA06F42C4312
:100940000461E4E70C2A0CD81F24073A036B02EB7E
:100950008202944023EA040301FA02F21A4302637A
:10096000E3E71F240D3AC36A02EB8202944023EAB4
:10097000040301FA02F21A43C262D6E7836819B18E
:1009800043F480138360704723F48013FAE7C06C4C
:1009900080B27047014BD3F84C04704700200140EF
:1009A000436819B143F480634360704723F4806364
:1009B000FAE7436819B143F480534360704723F466
:1009C0008053FAE7836823F4E0430B438360704766
:1009D000836819B143F400438360704723F40043F4
:1009E000FAE7836819B143F402138360704723F474
:1009F0000213FAE78068C0F340507047092970B5C8
:100A00001CD90726A1F10A04C56804EB4404A640DA
:100A100025EA060503FA04F42C43C460846B931C96
:100A2000C4F301529B1A1F22DBB203EB83039A40EB
:100A300024EA020499402143816370BD07240569BB
:100A400001EB4106B44025EA040503FA06F42C4301
:100A50000461E3E7836B013923F4401343EA015354
:100A600083637047002382B001930190019B194476
:100A70000191019B1A6002B07047002382B001937C
:100A80000190019B28330B440193019B186880B2AD
:100A900002B07047436823F4400323F400730B4310
:100AA00043607047416282627047436823F01F03CE
:100AB0001943416070470000044B9A6818B142F432
:100AC00000029A60704722F40002FAE70024014015
:100AD0000368194214BF012000207047C943016018
:100AE00070474368006810EA112004D0C9B2194267
:100AF00014BF0120002070476FEA11210160704788
:100B0000036823F001031B041B0C03600023036034
:100B100043608360C360294B984204D1284A5368DC
:100B200043F00F0326E0274B984204D1244A536830
:100B300043F0F0031EE0244B984204D1204A53684E
:100B400043F4706316E0214B984204D11C4A536869
:100B500043F470430EE01E4B984204D1184A536888
:100B600043F4702306E01B4B984205D1144A5368A6
:100B700043F4700353607047174B984204D1104AF6
:100B8000536843F07063F5E7144B984201D1144A5F
:100B9000C5E7144B984201D1114AC8E7124B98425D
:100BA00001D10F4ACBE7114B984201D10C4ACEE755
:100BB0000F4B9842DFD10A4AD1E700BF080002403C
:100BC000000002401C00024030000240440002408D
:100BD000580002406C0002408000024008040240BD
:100BE000000402401C04024030040240440402405D
:100BF000580402408B6810B50C6A026823430C69E4
:100C000022F4FF4223434C6922F0700223438C6993
:100C10002343CC6923434C6A23438C6A2343134305
:100C20000360CB6843600B6883604B68C36010BD92
:100C30000023C0E90033C0E90233C0E90433C0E94E
:100C40000633C0E9083383627047036819B143F083
:100C500001030360704723F001031B041B0CF8E73A
:100C6000036812B119430160704723EA0101FAE7F2
:100C700041607047406880B270470000C3004CBFBD
:100C8000034B044B1B68034214BF01200020704734
:100C90000004024000000240C3004CBF014B024B65
:100CA000586070470004024000000240FFF7E6BFB2
:100CB000FFF7F2BF0022044B1A605A609A60DA60B4
:100CC000024A5A61704700BF00040140FFFF0F0055
:100CD000027930B58379056802F18042E94302F573
:100CE000823223B3144B1C680C401C605C682140AA
:100CF00059601168294311609968026821EA02016C
:100D00009960D96821EA0201D9604179102906D198
:100D1000996811439960D9680A43DA6030BD01F1DE
:100D2000804303F5823319680A431A60F6E71368B3
:100D30000B401360F2E700BF0004014000234FF4B2
:100D4000406203608280837170470000024A136929
:100D500003431361704700BF00040140034B5B690C
:100D6000034214BF01200020704700BF000401406F
:100D7000014B5861704700BF000401400246054B1B
:100D800019685869104003D0114214BF0120002097
:100D9000704700BF00040140014B5861704700BF1D
:100DA00000040140034A136803F03803034313604F
:100DB000704700BF00200240044B196821F0080171
:100DC00019601A6802431A60704700BF0020024091
:100DD000044B196821F0100119601A6802431A6067
:100DE000704700BF00200240034B044A5A6002F1E2
:100DF00088325A60704700BF0020024023016745D7
:100E0000FFF7F2BF024A136943F080031361704792
:100E100000200240FFF7F6BF014BD86980087047F9
:100E200000200240014B186A704700BF00200240BA
:100E3000024BD869C0F34000704700BF0020024059
:100E4000024B1868C0F34010704700BF00200240FA
:100E5000044B1A6911B110431861704722EA00006F
:100E6000FAE700BF002002400128064B03D1D869F1
:100E700000F001007047DB68034214BF012000202E
:100E8000704700BF00200240014BD860704700BF90
:100E900000200240084BDA68D10709D4DA6852070B
:100EA00008D4DB6813F0100F14BF03200420704730
:100EB000012070470220704700200240084BDA688A
:100EC000D10709D4DA68520708D4DB6813F0100F91
:100ED00014BF032004207047012070470220704790
:100EE0000020024010B50446FFF7E8FF012806D1B4
:100EF0000CB9052010BDFFF7E1FF013CF6E7002C1F
:100F000008BF0520F6E7000038B505464FF430204D
:100F1000FFF7E8FF042813D10A4C4FF4302023696F
:100F200043F0020323616561236943F040032361B9
:100F3000FFF7D8FF236923F00203DB04DB0C2361F6
:100F400038BD00BF002002404FF4302010B5FFF73D
:100F5000C9FF042812D10A4C4FF43020236943F012
:100F600004032361236943F040032361FFF7BAFFC1
:100F7000236923F00403DB04DB0C236110BD00BFF5
:100F800000200240FFF7E0BF38B5FFF751FF00280F
:100F90004FF430200CBFA5250025FFF7A3FF042840
:100FA0002BD1164C164B4FF43020A36003F188333D
:100FB000A360236943F020032361236943F04003C6
:100FC0002361FFF78FFF04280FD123694FF40050EE
:100FD00023F02003DB04DB0C2361236943F01003BF
:100FE0002361084B1D80FFF77DFF052805D023698D
:100FF00023F01003DB04DB0C236138BD002002402A
:101000002301674500F8FF1F002373B506464FF420
:1010100000500D460193FFF765FF04281BD10F4CCC
:101020004FF40050236943F001032361ABB23380D6
:10103000FFF758FF042808D102360196019B2D0CBA
:101040004FF400501D80FFF74DFF236923F001038B
:10105000DB04DB0C236102B070BD00BF0020024046
:1010600070B505464FF400500E46FFF73BFF0428CD
:101070000FD1084C4FF40050236943F00103236162
:101080002E80FFF72FFF236923F00103DB04DB0C25
:10109000236170BD0020024070B506464FF4005039
:1010A0000D46FFF71FFF042817D10C4C0C4BADB2B7
:1010B000A36003F18833A36023694FF4005043F029
:1010C000100323613580FFF70DFF052805D0236944
:1010D00023F01003DB04DB0C236170BD0020024011
:1010E0002301674510B504464FF40050FFF7FAFEA0
:1010F00004283BD1E443224B224AE1B29A6002F138
:1011000088329A601A69FF2942F010021A6123D1CD
:10111000C4F30723FF2B07D01B4A4FF40050538121
:10112000FFF7E0FE04281FD1C4F30743FF2B07D0CD
:10113000154A4FF400509381FFF7D4FE042813D1D1
:10114000240EFF2C13D104200D4A136923F0100341
:10115000DB04DB0C136109E00B4B4FF400501981E9
:10116000FFF7C0FE0428D3D00528EDD110BD064BF3
:10117000A4B2DC814FF40050FFF7B4FEF4E700BFE7
:10118000002002402301674500F8FF1F38B50546DF
:101190004FF43020FFF7A6FE04282ED11D4C1E4B25
:1011A0004FF43020A36003F18833A360236943F038
:1011B00020032361236943F040032361FFF792FE7C
:1011C00004281DD1236923F02003DB04DB0C2361F9
:1011D000236943F010032361104B7DB100224FF4CB
:1011E00030201A80FFF77EFE052806D0094A1369D1
:1011F00023F01003DB04DB0C136138BDA522EEE7FE
:101200000528FAD0236923F02003DB04DB0C2361DB
:10121000F3E700BF002002402301674500F8FF1FED
:10122000F8B5134D134B0746AB6003F188334FF409
:101230000050AB600C461646FFF754FE042815D14B
:101240002B693E4343F010032B6134430A4B44F0B7
:10125000F8044FF400505C80FFF744FE052805D0E9
:101260002B6923F01003DB04DB0C2B61F8BD00BFFE
:10127000002002402301674500F8FF1FFFF732BE40
:1012800008B5264B984209D10121042001F08EFABD
:1012900000210420BDE8084001F088BA204B9842A4
:1012A00006D10121082001F081FA00210820F1E790
:1012B0001C4B984206D10121102001F077FA002141
:1012C0001020E7E7184B984206D10121202001F0B9
:1012D0006DFA00212020DDE7144B984206D1012150
:1012E000402001F063FA00214020D3E7104B9842E0
:1012F00006D10121802001F059FA00218020C9E7A0
:101300000C4B984208D101214FF4807001F04EFA45
:1013100000214FF48070BDE708BD00BF0008014008
:10132000000C014000100140001401400018014071
:10133000001C014000200140012108B5084601F0D1
:1013400035FABDE808400021012001F02FBA2DE94F
:10135000F041CB780F88DA0648BF8A7803F00F0592
:1013600048BF15430A78D2B100214FF0010C4FF06D
:101370000F0E02680CFA01F636EA07040BD18C0056
:101380000EFA04F822EA080205FA04F4282B42EACD
:10139000040225D1466101310829EBD10260FF2FFB
:1013A0001CD900214FF0010C4FF00F0E426801F1E3
:1013B00008040CFA04F434EA07060BD18E000EFA86
:1013C00006F822EA080205FA06F6282B42EA060287
:1013D0000AD1446101310829E9D14260BDE8F081B8
:1013E000482B08BF0661D6E7482B08BF0461F1E728
:1013F0004FF6FF73038040F20243438070478368D7
:10140000194214BF012000207047806880B27047E5
:10141000C368194214BF012000207047C06880B221
:10142000704701617047416170470AB101617047BF
:1014300041617047C160704741F4803383618161CD
:101440008361836983697047054A136823F07F03CA
:101450001B041B0C0B4343EA00131360704700BFCF
:1014600000000140014BD861704700BF00002042DE
:101470000028164A30B500F44015B4BFD36953684C
:10148000B5F5401F84B210D1556823F0706325F084
:101490007065556019B1420D1201944023430B4A07
:1014A0000028B4BFD361536030BDC2024DBF0322D8
:1014B000420D1201C0F303454CBFAA4004FA02F2E8
:1014C00023EA020343F07063E4E700BF0000014039
:1014D00010B50F2401F0030301F0FC0101F180417C
:1014E00001F580318A689B009C4022EA04028A60F0
:1014F0008A6898401043886010BD0000014BC3F813
:10150000DC0070470000204270B5068C42EA0312EE
:1015100026F001063604360C0684048B154B24F0A5
:10152000F3042404058C240C14439842ADB2A4B2F5
:1015300012D003F5006398420ED0B0F1804F0BD06B
:10154000A3F59833984207D003F58063984203D0FF
:1015500003F58063984208D125F0020341EA0305B0
:1015600045F001050483058470BD25F00A050D438F
:10157000F6E700BF002C014070B5048C120224F085
:1015800010042404240C0484058B42EA033225F45D
:101590004075154B2D05048C2D0D0E0115439842F9
:1015A000A4B2B6B2ADB212D003F5006398420ED029
:1015B000B0F1804F0BD0A3F59833984207D003F5D4
:1015C0008063984203D003F58063984208D124F0E9
:1015D000200446EA040141F010010583018470BD36
:1015E00024F0A0042143F6E7002C014008B5614B2C
:1015F00098420BD101214FF4006001F0D7F800218F
:101600004FF40060BDE8084001F0D0B8B0F1804F61
:1016100009D10121084601F0D5F800210120BDE8DB
:10162000084001F0CFB8544B984206D10121022066
:1016300001F0C8F800210220F1E7504B984206D192
:101640000121042001F0BEF800210420E7E74C4B03
:10165000984206D10121082001F0B4F800210820A9
:10166000DDE7484B984206D10121102001F0AAF88D
:1016700000211020D3E7444B984206D101212020BD
:1016800001F0A0F800212020C9E7404B984208D182
:1016900001214FF4005001F089F800214FF400506F
:1016A000B0E73B4B984208D101214FF4002001F0F4
:1016B0007DF800214FF40020A4E7364B984208D172
:1016C00001214FF4801001F071F800214FF48010D7
:1016D00098E7314B984208D101214FF4001001F0F6
:1016E00065F800214FF400108CE72C4B984206D18E
:1016F0000121402001F066F8002140208FE7284BAF
:10170000984206D10121802001F05CF80021802060
:1017100085E7244B984208D101214FF4807001F0F5
:1017200051F800214FF4807079E71F4B984208D19F
:1017300001214FF4803001F039F800214FF480305E
:1017400060E71A4B984208D101214FF4003001F0B4
:101750002DF800214FF4003054E7154B984208D182
:1017600001214FF4802001F021F800214FF4802066
:1017700048E708BD002C014000040040000800407C
:10178000000C0040001000400014004000340140F4
:10179000004C01400050014000540140001800403E
:1017A000001C004000200040004001400044014077
:1017B00000480140224A038890429BB212D002F5B1
:1017C000006290420ED0B0F1804F0BD0A2F598325B
:1017D000904207D002F58062904203D002F5806209
:1017E000904203D14A8823F070031343154A904274
:1017F00008D002F5806290421FBF23F44073CA886C
:101800009BB2134303808B8883850B8803850C4B25
:1018100098420FD003F5006398420BD003F5406364
:10182000984207D003F58063984203D003F58063A4
:10183000984201D10B7A038601238382704700BF4F
:10184000002C014000100040038C70B523F0010310
:101850001B041B0C0384038C8488028B0D8822F0EC
:1018600073021204120C4E882A4323F002030D89DE
:101870001B0435431B0C2B43144DA4B2A8429BB24E
:101880000FD005F50065A8420BD005F54065A842CC
:1018900007D005F58065A84203D005F58065A8420C
:1018A0000ED14D8923F008032B438D8823F00403C8
:1018B000CE892B438D8924F4407435432C43A4B244
:1018C00084800283CA888286038470BD002C014014
:1018D000038C70B523F010031B041B0C0384038CD2
:1018E0008488028B0D8822F4E6421204120C42EA2C
:1018F00005224E880D8923F020031B0435431B0C61
:1019000043EA0513114DA4B2A84292B29BB203D090
:1019100005F50065A84213D14D8923F0800343EA01
:1019200005134FF6BF751D408B88CE8945EA03131A
:101930008D8924F44064354344EA85049BB2A4B203
:1019400084800283CA880287038470BD002C014012
:10195000038C70B523F480731B041B0C0384038C6D
:101960008288848B0D8824F073042404240C4E8810
:101970002C4323F400730D891B0435431B0C43EAED
:101980000523114D92B2A8429BB203D005F5006524
:10199000A84213D14D8923F4006343EA05234FF68F
:1019A000FF351D408B88CE8945EA03238D8922F4BB
:1019B0004052354342EA05129BB292B28280CA88F5
:1019C00084838287038470BD002C0140038C70B532
:1019D00023F480531B041B0C0384038C8488828BA8
:1019E0000D8822F4E6421204120C42EA05224E88C7
:1019F0000D8923F400531B0435431B0C43EA0533C4
:101A00000B4DA4B2A84292B29BB203D005F500657B
:101A1000A84205D18D8924F4804444EA8514A4B2F7
:101A200084808283CA88A0F84020038470BD00BFF0
:101A3000002C01404A880B8813438A881343CA88C4
:101A400013430A8913434A8913438A8913439BB278
:101A5000A0F8443070474FF6FF7383800023038063
:101A6000C3804380037270470023038043808380D8
:101A7000C380038143818381C38170470023012296
:101A8000038043808280C3800381704700230380EA
:101A900043808380C38003814381838170470388AF
:101AA00021B19BB243F001030380704723F001038F
:101AB0001B041B0CF8E7B0F8443039B16FEA43431C
:101AC0006FEA53439BB2A0F844307047C3F30E0350
:101AD000F9E783899BB212B119438181704723EAE8
:101AE0000101FAE7818270471143A0F8481070475E
:101AF000FFF7EFBF038923F007031B041B0C0381CF
:101B00007047038923F070031B041B0C0B430381F4
:101B100003899BB243F007030381704738B50D4634
:101B2000602D114604464FF001020ED1FFF724FD4F
:101B3000238923F070031B041B0C2B43238123896F
:101B40009BB243F00703238138BDFFF7DDFCEFE7CD
:101B500010B504890A43E4B242EA03221443A4B252
:101B6000048110BD10B5FFF7F3FF038923F077035D
:101B70001B041B0C43F07703038110BD10B5FFF766
:101B8000E7FF03899BB243F48043038110BD0185C5
:101B900082827047038823F070031B041B0C0B43E5
:101BA00003807047038923F070031B041B0C0B4355
:101BB0000381704770B50689048B058C24F440744A
:101BC00024F0030425F0220526F0070624042D0442
:101BD0003604240C2D0C42EA0312360C44F48074B3
:101BE00015430E4344F00104ADB20681048305841D
:101BF00070BD038B23F070031B041B0C0B4303838A
:101C00007047038B23F4E0431B041B0C43EA0123BE
:101C10009BB203837047838B23F070031B041B0C60
:101C20000B4383837047838B23F4E0431B041B0C1B
:101C300043EA01239BB283837047038821B19BB29F
:101C400043F080030380704723F080031B041B0CC8
:101C5000F8E7838821B19BB243F004038380704787
:101C600023F004031B041B0CF8E7838821B19BB20B
:101C700043F008038380704723F008031B041B0C08
:101C8000F8E7838821B19BB243F00103838070475A
:101C900023F001031B041B0CF8E7038B23F008035C
:101CA0001B041B0C0B4303837047038B23F400635B
:101CB0001B041B0C43EA01239BB203837047838BF5
:101CC00023F008031B041B0C0B4383837047838B97
:101CD00023F400631B041B0C43EA01239BB28383A0
:101CE0007047038B23F004031B041B0C0B4303837B
:101CF0007047038B23F480631B041B0C43EA01230E
:101D00009BB203837047838B23F004031B041B0CDB
:101D10000B4383837047838B23F480631B041B0C6A
:101D200043EA01239BB283837047038B23F0800334
:101D30001B041B0C0B4303837047038BC3F30E037D
:101D400043EA01239BB203837047838B23F0800314
:101D50001B041B0C0B4383837047838BC3F30E035D
:101D600043EA01239BB283837047038C23F0020371
:101D70001B041B0C0B4303847047038C23F00803E4
:101D80001B041B0C0B4303847047038C23F02003BC
:101D90001B041B0C43EA01139BB203847047038CA2
:101DA00023F080031B041B0C43EA01139BB2038442
:101DB0007047038C23F400731B041B0C43EA0123BC
:101DC0009BB203847047038C23F400631B041B0C39
:101DD00043EA01239BB203847047038C23F400532E
:101DE0001B041B0C43EA01339BB20384704710B5FC
:101DF0000124038C8C409BB223EA04030384038CEC
:101E00008A401A4392B2028410BD10B50424038C98
:101E10008C409BB223EA04030384038C8A401A4358
:101E200092B2028410BD30B50125048C8D40A4B25D
:101E300024EA050400F11803048421F0080040B9E5
:101E40004908C85820F07000C850C8580243CA500A
:101E500030BD0439C1F34E01C858120220F4E040ED
:101E6000C850C85892B2F1E7038821B19BB243F041
:101E700002030380704723F002031B041B0CF8E7E6
:101E8000038821B19BB243F004030380704723F021
:101E900004031B041B0CF8E7838821B19BB243F0B9
:101EA00080038380704723F080031B041B0CF8E73A
:101EB000038823F008031B041B0C038003889BB2D8
:101EC0000B4303807047838823F070031B041B0CB3
:101ED000838083889BB20B4383807047038923F000
:101EE00007031B041B0C038103899BB20B43038173
:101EF0007047038923F080031B041B0C03810389B3
:101F00009BB20B4303817047818470478185704782
:101F1000818670470187704781877047A0F840101D
:101F20007047038B23F00C031B041B0C0383038BF0
:101F30009BB20B4303837047028B22F4406212046E
:101F4000120C0283038B9BB243EA01239BB20383EF
:101F50007047F8B50C464988A288002927880CBF2D
:101F600002250025012A0CBF02260126238977B904
:101F7000FFF7CAFAE188FFF7D4FF324629462389E2
:101F8000FFF7FAFAE188BDE8F840FFF7D5BFFFF7A1
:101F9000F3FAE188FFF7D0FF294632462389FFF79D
:101FA000B3FAE188BDE8F840FFF7BBBF838B23F0AD
:101FB0000C031B041B0C8383838B9BB20B43838317
:101FC0007047828B22F440621204120C8283838B4E
:101FD0009BB243EA01239BB283837047F8B50F4657
:101FE000098804467D88BA883B8939B92946FFF7B4
:101FF0008BFAF988BDE8F840FFF793BF042907D1B1
:102000002946FFF7B9FAF988BDE8F840FFF794BF11
:102010000829008CF98839D120F480700004000C64
:102020002084A68B208CB6B226F0F306164346EA2F
:102030000316354B2F029C4280B2BFB2B6B212D00B
:1020400003F500639C420ED0B4F1804F0BD0A3F592
:1020500098339C4207D003F580639C4203D003F57C
:1020600080639C420CD120F4007047EA000343F4E3
:102070008073A68320462384BDE8F840FFF796BF0F
:1020800020F42060284340F48073F2E720F480506D
:102090000004000C2084A78B1E0327F440771A4B02
:1020A0003F05208C3F0D46EA02264FEA053C3E43A1
:1020B0009C4280B21FFA8CFCB6B212D003F50063CA
:1020C0009C420ED0B4F1804F0BD0A3F598339C42C4
:1020D00007D003F580639C4203D003F580639C42E4
:1020E0000CD120F400504CEA000343F48053A68343
:1020F00020462384BDE8F840FFF763BF47F6FF534F
:1021000003402B43F1E700BF002C0140038823F478
:1021100040731B041B0C038003889BB20B4303809A
:102120007047808E80B27047008F80B27047808F7A
:1021300080B27047B0F8400080B27047808C80B2A7
:102140007047008D80B27047038A194214BF012086
:1021500000207047C94389B201827047038A82898F
:1021600011EA030092B203D00A4214BF01200020FA
:102170007047C94389B201827047000008B5214BFE
:1021800098420BD101214FF4804000F00FFBBDE8D5
:10219000084000214FF4804000F008BB1A4B9842E1
:1021A0000BD101214FF4003000F00CFB00214FF463
:1021B0000030BDE8084000F005BB144B984208D140
:1021C00001214FF4802000F0FDFA00214FF480201F
:1021D000EFE70F4B984208D101214FF4002000F0A7
:1021E000F1FA00214FF40020E3E70A4B984208D1AE
:1021F00001214FF4801000F0E5FA00214FF4801027
:10220000D7E708BD003801400044004000480040C6
:10221000004C00400050004030B50D460446038A93
:102220008A899BB2C98823F440530B430382838974
:10223000A98823F4B05323F00C031B041B0C0B439D
:10224000298987B00B4369890B439BB28381838AB9
:102250009BB223F440731343838201A800F040FA39
:10226000DDE9033214498C4208BF13461922A189C3
:1022700053432A680D044CBF520092006421B3FB03
:10228000F2F3B3FBF1F001FB10330201A08900046B
:102290004BBFDB001B01323332334BBFB3FBF1F3D7
:1022A000B3FBF1F303F0070303F00F0313439BB2F7
:1022B000238107B030BD00BF003801404FF41652F3
:1022C0000023C0E900234FF44022838182607047DD
:1022D0000B8810B54C88028A23438C88C98892B237
:1022E00023430B4322F4706213439BB2038210BD5D
:1022F0000023038043808380C3807047838921B19A
:102300009BB243F400538381704723F400531B04B2
:102310001B0CF8E7012310B5C1F342149C4201F0F5
:102320001F0103FA01F105D10C3003683AB11943DA
:10233000016010BD022C0CBF10301430F5E723EA09
:102340000101F5E7838A9BB212B11943818270477C
:1023500023EA0101FAE7038A23F00F031B041B0C95
:102360000382038A9BB20B4303827047838923F461
:1023700000631B041B0C838183899BB20B43838105
:102380007047838921B19BB243F002038381704778
:1023900023F002031B041B0CF8E7038A23F020033D
:1023A0001B041B0C0382038A9BB20B4303827047FE
:1023B000038A21B19BB243F480430382704723F424
:1023C00080431B041B0CF8E7C1F3080181807047B0
:1023D0008088C0F30800704783899BB243F00103F3
:1023E00083817047028BD2B20283038B9BB243EA94
:1023F000012303837047028B02F47F420283038B25
:102400009BB20B4303837047838A21B19BB243F095
:1024100020038382704723F020031B041B0CF8E782
:10242000838A21B19BB243F010038382704723F06B
:1024300010031B041B0CF8E7838A21B19BB243F005
:1024400008038382704723F008031B041B0CF8E782
:10245000838931B16FEA43436FEA53439BB283816F
:102460007047C3F30E03FAE7838A21B19BB243F4AA
:1024700000638382704723F400631B041B0CF8E79E
:10248000838A23F004031B041B0C8382838A9BB280
:102490000B4383827047838A21B19BB243F00203CE
:1024A0008382704723F002031B041B0CF8E70388A8
:1024B000194214BF012000207047C94389B201802E
:1024C0007047012310B5C1F3421402469C4201F04B
:1024D0001F0003FA00F00ED1938912889BB21840B6
:1024E00092B238B10123090A03FA01F10A4214BF7A
:1024F0001846002010BD022C0CBF138A938AECE70B
:102500000123090A8B40DB439BB203807047000024
:102510000D4B1A6842F001021A6059680B4A0A40D2
:102520005A601A6822F0847222F480321A601A68A3
:1025300022F480221A605A6822F4FE025A604FF494
:102540001F029A60704700BF001002400000FFF8B1
:102550000C4BB0F5803F1A6822F480321A601A687A
:1025600022F480221A6003D0B0F5802F05D0704786
:102570001A6842F480321A6070471A6842F4A02246
:10258000F9E700BF00100240002382B0094901931F
:102590000B68019A03F4003301320192019AB2F5FB
:1025A000A06F01D0002BF3D00868C0F3404002B008
:1025B000704700BF00100240034A136823F0F8037D
:1025C00043EAC0031360704700100240014B1860DB
:1025D000704700BF00004242034A536823F47C1353
:1025E0000B4303435360704700100240014B1866D1
:1025F000704700BF00004242034A536823F00303C0
:1026000003435360704700BF00100240024B5868FC
:1026100000F00C00704700BF00100240034A5368EE
:1026200023F0F00303435360704700BF00100240E3
:10263000034A536823F4E06303435360704700BFC9
:1026400000100240034A536823F4605343EAC00376
:102650005360704700100240044B5A7A11B1104386
:102660005872704722EA0000FAE700BF00100240EB
:10267000014BC3F8D800704700004242034A536838
:1026800023F4404303435360704700BF00100240EF
:102690000022084B012883F8202083F8202002D054
:1026A000042803D0704783F820007047052283F880
:1026B0002020704700100240014BC3F8800470478F
:1026C00000004242024A136A03431362704700BF8C
:1026D00000100240014BC3F83C0470470000424226
:1026E0001B4A10B5536803F00C03082B1FD0194B7D
:1026F00003605368184CC3F30313E15C0368CB40D9
:1027000043605168C1F30221615C23FA01F18160E9
:102710005168C1F3C221615CCB40C36052680F496C
:10272000C2F381328A5CB3FBF2F3036110BD5368DC
:102730005168C3F38343CC0303F1020302D4084975
:102740004B43D5E751688903F9D40249F8E700BF44
:102750000010024000127A00500400204C040020B7
:1027600000093D00044B5A6911B11043586170478C
:1027700022EA0000FAE700BF00100240044B9A6909
:1027800011B110439861704722EA0000FAE700BFD8
:1027900000100240044BDA6911B11043D861704750
:1027A00022EA0000FAE700BF00100240044BDA689A
:1027B00011B11043D860704722EA0000FAE700BF69
:1027C00000100240044B1A6911B1104318617047A0
:1027D00022EA0000FAE700BF00100240014BC3F8F4
:1027E0004004704700004242014BD864704700BF6C
:1027F00000004242014BD871704700BF00100240F8
:102800004209012A074B07D11B6800F01F0023FA79
:1028100000F000F001007047022A0CBF1B6A5B6ADF
:10282000F3E700BF00100240024A536A43F080738E
:102830005362704700100240034B9B68184214BF5C
:1028400001200020704700BF00100240014B987229
:10285000704700BF0010024082B00190019B5A1ED9
:102860000192002BFAD102B07047000007B5012198
:102870000420FFF783FF41F203040223154801A956
:10288000ADF80430ADF80640FEF761FD01231248B3
:1028900001A9ADF80640ADF80430FEF758FD0D4E25
:1028A0000D4D0E4C30460221FEF7BBFD284601219E
:1028B000FEF7B7FD2046FFF7CFFF02213046FEF7B7
:1028C000B2FD28460121FEF7AEFD2046FFF7C4FF0A
:1028D000E8E700BF00080140000C0140FFFF0F00C7
:1028E00000000000F8B500BFF8BC08BC9E46704769
:0C28F000F8B500BFF8BC08BC9E4670475D
:1028FC003B3E0B3E103E253E333E033E063E143E11
:10290C000E3E0D3E243E123E273E023E183E093E30
:10291C000A3E00003B3E0B3E103E253E333E033E3E
:10292C00063E143E0E3E0D3E243E123E273E023E17
:0C293C00183E093E0A3E00000800002082
:0829480004D8FF7F010000002C
:08295000E90200083101000852
:042958000D01000865
:10295C00000000000800002000000000F40200202D
:10296C005C030020C40300200000000000000000F5
:10297C00000000000000000000000000000000004B
:10298C00000000000000000000000000000000003B
:10299C00000000000000000000000000000000002B
:1029AC00000000000000000000000000000000001B
:1029BC00000000000000000000000000000000000B
:1029CC0000000000000000000000000000000000FB
:1029DC0000000000000000000000000000000000EB
:1029EC0000000000000000000000000000000000DB
:1029FC0000000000000000000000000000000000CB
:102A0C0001000000000000000E33CDAB34126DE667
:102A1C00ECDE05000B0000000000000000000000D0
:102A2C00000000000000000000000000000000009A
:102A3C00000000000000000000000000000000008A
:102A4C00000000000000000000000000000000007A
:102A5C00000000000000000000000000000000006A
:102D8C008404002000000000000000000102030485
:102D9C000607080900A24A0400127A000204060879
:102DAC0000000000010203040102030406070809E5
:04000005080004AD3E
:00000001FF
